:100000000C945D000C9485000C9485000C94850084
:100010000C9485000C9485000C9485000C9485004C
:100020000C9485000C9485000C9485000C9485003C
:100030000C9485000C9485000C9485000C9485002C
:100040000C94A1010C9485000C9411020C94EB010A
:100050000C9485000C9485000C9485000C9485000C
:100060000C9485000C9485000000000024002700FB
:100070002A0000000000250028002B0004040404CE
:100080000404040402020202020203030303030342
:10009000010204081020408001020408102001021F
:1000A00004081020000000080002010000030407FB
:1000B0000000000000000000230411241FBECFEF49
:1000C000D8E0DEBFCDBF11E0A0E0B1E0E6E0F9E0AE
:1000D00002C005900D92A035B107D9F721E0A0E547
:1000E000B1E001C01D92AA3FB207E1F710E0CDE5F3
:1000F000D0E004C02197FE010E947204CC35D107E4
:10010000C9F70E9443020C9481040C940000AF9242
:10011000BF92CF92DF92EF92FF920F931F93CF93F4
:10012000DF936C017B018B01040F151FEB015E0156
:10013000AE18BF08C017D10759F06991D601ED91EB
:10014000FC910190F081E02DC6010995892B79F78A
:10015000C501DF91CF911F910F91FF90EF90DF903C
:10016000CF90BF90AF900895FC01538D448D252F03
:1001700030E0842F90E0821B930B541710F0CF9641
:10018000089501970895FC01918D828D981761F073
:10019000A28DAE0FBF2FB11D5D968C91928D9F5F8A
:1001A0009F73928F90E008958FEF9FEF0895FC0169
:1001B000918D828D981731F0828DE80FF11D858D1C
:1001C00090E008958FEF9FEF0895FC01918D228DAF
:1001D000892F90E0805C9F4F821B91098F73992734
:1001E00008958DE591E00E94E50021E0892B09F456
:1001F00020E0822F089580E090E0892B29F00E9472
:10020000F10081110C9400000895FC01A48DA80F49
:10021000B92FB11DA35ABF4F2C91848D90E0019648
:100220008F739927848FA689B7892C93A089B18968
:100230008C91837080648C93938D848D981306C009
:100240000288F389E02D80818F7D80830895EF926D
:10025000FF920F931F93CF93DF93EC0181E0888F80
:100260009B8D8C8D98131AC0E889F989808185FF50
:1002700015C09FB7F894EE89FF896083E889F989F2
:1002800080818370806480839FBF81E090E0DF91F4
:10029000CF911F910F91FF90EF900895F62E0B8D47
:1002A00010E00F5F1F4F0F731127E02E8C8D8E1102
:1002B0000CC00FB607FCFACFE889F989808185FF69
:1002C000F5CFCE010E940501F1CFEB8DEC0FFD2F94
:1002D000F11DE35AFF4FF0829FB7F8940B8FEA8924
:1002E000FB8980818062CFCFCF93DF93EC01888D33
:1002F0008823B9F0AA89BB89E889F9898C9185FDA1
:1003000003C0808186FD0DC00FB607FCF7CF8C912E
:1003100085FFF2CF808185FFEDCFCE010E940501E0
:10032000E9CFDF91CF910895FC0101900020E9F71A
:100330003197AF01481B590BBC018DE591E00C943E
:1003400087001F920F920FB60F9211242F933F93A5
:100350008F939F93AF93BF938091590190915A01CE
:10036000A0915B01B0915C013091580123E0230F13
:100370002D3758F50196A11DB11D2093580180938A
:10038000590190935A01A0935B01B0935C01809155
:10039000540190915501A0915601B09157010196D9
:1003A000A11DB11D8093540190935501A093560156
:1003B000B0935701BF91AF919F918F913F912F9132
:1003C0000F900FBE0F901F90189526E8230F0296EE
:1003D000A11DB11DD2CF1F920F920FB60F92112403
:1003E0002F933F934F935F936F937F938F939F933D
:1003F000AF93BF93EF93FF938DE591E00E940501CA
:10040000FF91EF91BF91AF919F918F917F916F91EC
:100410005F914F913F912F910F900FBE0F901F90C2
:1004200018951F920F920FB60F9211242F938F934E
:100430009F93EF93FF93E0916D01F0916E018081A6
:10044000E0917301F091740182FD1BC09081809155
:1004500076018F5F8F7320917701821741F0E091D1
:100460007601F0E0E35AFE4F958F80937601FF917D
:10047000EF919F918F912F910F900FBE0F901F9032
:1004800018958081F4CFCF93DF93CDB7DEB7A197D6
:100490000FB6F894DEBF0FBECDBF789484B58260EE
:1004A00084BD84B5816084BD85B5826085BD85B518
:1004B000816085BD80916E00816080936E00109296
:1004C0008100809181008260809381008091810011
:1004D00081608093810080918000816080938000A2
:1004E0008091B10084608093B1008091B000816000
:1004F0008093B00080917A00846080937A0080912C
:100500007A00826080937A0080917A008160809383
:100510007A0080917A00806880937A001092C100FE
:10052000E0916D01F0916E0182E08083E0916901BC
:10053000F0916A011082E0916B01F0916C0180E111
:10054000808310927501E0917101F091720186E053
:100550008083E0916F01F0917001808180618083E0
:10056000E0916F01F0917001808188608083E0915B
:100570006F01F0917001808180688083E0916F014C
:10058000F091700180818F7D8083FDE92F2EF0E056
:100590003F2EF1012491A9E88A2EA0E09A2EF401C1
:1005A0008491882399F090E0880F991FFC01E85905
:1005B000FF4FA591B491FC01EE58FF4F85919491A6
:1005C0008FB7F8949C91292B2C938FBF7AE0472EFC
:1005D000512C612C712C00E010E0F0E4F0937C00D1
:1005E00080917A00806480937A0080917A0086FD01
:1005F000FCCFA0907800B09079004AE2E42E41E070
:10060000F42E49EEA41643E0B406CCF4E6E1F1E0A2
:1006100090E080E022813381A501421B530B9A01B7
:10062000245C3F4F2937310508F0C7C0880F991F58
:10063000880F991FFC01EA5EFE4FE080F1806AE2BC
:1006400071E0C7010E947804E1EBF0E03491F10120
:100650002491F40144914423F9F0332359F03330C9
:1006600009F4C1C008F0B4C0313009F4C2C032305E
:1006700009F4C3C0E42FF0E0EE0FFF1FEE58FF4F68
:10068000A591B4913FB7F894892B09F0C3C08C9120
:10069000209528232C933FBF2FB7F89480915901C0
:1006A00090915A01A0915B01B0915C012FBF4091E4
:1006B0005001509151016091520170915301841B7E
:1006C000950BA60BB70B883C9105A105B10588F4E5
:1006D00080910201909103018A159B0551F460916C
:1006E000000170910101C7010E947804892B09F46F
:1006F00058C02FB7F8948091590190915A01A09158
:100700005B01B0915C012FBF809350019093510128
:10071000A0935201B0935301B0920301A092020141
:10072000F0920101E092000187E391E00E949401C0
:100730000B2C000CCC08DD08D7FE6FC06DE28DE5F8
:1007400091E00E94270122273327A9012A193B099A
:100750004C095D0919A2CE0181966C01CA01B9014B
:10076000A30192010E945004605DF60162936F0143
:10077000211531054105510589F7C114D10419F03E
:10078000C6010E9494018BE391E00E949401E11460
:10079000F10419F0C7010E94940184E491E00E94E1
:1007A00094010115110509F418CF0E94F100882366
:1007B00009F413CF0E94000010CF019634968530C3
:1007C000910509F027CF5FE2E52E51E0F52E37CFF6
:1007D0003730B1F03830D1F0343009F04BCF3091B0
:1007E00080003F7D03C0309180003F7730938000D0
:1007F00041CF34B53F7734BD3DCF34B53F7DFBCFDE
:100800003091B0003F773093B00034CF3091B000DA
:100810003F7DF9CF8C91282B3DCFA601950119A2E0
:10082000CE0181966C01CA01B901A30192010E9417
:100830005004605DF60162936F0121153105410599
:10084000510589F79ACFEDE5F1E01382128288EE27
:1008500093E0A0E0B0E084839583A683B78388E02B
:1008600091E09183808385EC90E09587848784EC88
:1008700090E09787868780EC90E0918B808B81EC6D
:1008800090E0938B828B82EC90E0958B848B86EC4E
:1008900090E0978B868B118E128E138E148E089596
:1008A000A1E21A2EAA1BBB1BFD010DC0AA1FBB1F74
:1008B000EE1FFF1FA217B307E407F50720F0A21BE6
:1008C000B30BE40BF50B661F771F881F991F1A9453
:1008D00069F760957095809590959B01AC01BD017D
:1008E000CF010895EE0FFF1F0590F491E02D0994BC
:1008F000FB01DC018D91019080190110D9F3990B56
:060900000895F894FFCFFA
:100906004601FFFF0000000027018700B4007401C4
:10091600E500C300D700470184034901BC022D014D
:10092600F4014B012C014D0164004E4F4E4500551C
:100936004E4B4E4F574E0041303D00206275747449
:100946006F6E3D000D0A004100460058004400004D
:00000001FF
